{
  "_format": "hh-sol-artifact-1",
  "contractName": "Assessment",
  "sourceName": "contracts/Assessment.sol",
  "abi": [
    {
      "inputs": [
        {
          "internalType": "uint256",
          "name": "fav_dest",
          "type": "uint256"
        }
      ],
      "name": "destination",
      "outputs": [],
      "stateMutability": "nonpayable",
      "type": "function"
    },
    {
      "inputs": [],
      "name": "getcost",
      "outputs": [
        {
          "internalType": "uint256",
          "name": "",
          "type": "uint256"
        }
      ],
      "stateMutability": "view",
      "type": "function"
    },
    {
      "inputs": [
        {
          "internalType": "uint256",
          "name": "star",
          "type": "uint256"
        }
      ],
      "name": "hotel",
      "outputs": [],
      "stateMutability": "nonpayable",
      "type": "function"
    }
  ],
  "bytecode": "0x60806040526000805534801561001457600080fd5b506102d8806100246000396000f3fe608060405234801561001057600080fd5b50600436106100415760003560e01c806344f6891e146100465780638583ff2414610062578063fd252d4614610080575b600080fd5b610060600480360381019061005b91906101e8565b61009c565b005b61006a610138565b6040516100779190610224565b60405180910390f35b61009a600480360381019061009591906101e8565b610141565b005b60008081905550600181036100ca576103e86000808282546100be919061026e565b92505081905550610135565b600281036100f1576107d06000808282546100e5919061026e565b92505081905550610134565b6003810361011857610bb860008082825461010c919061026e565b92505081905550610133565b610fa060008082825461012b919061026e565b925050819055505b5b5b50565b60008054905090565b600381036101675760c860008082825461015b919061026e565b925050819055506101aa565b6004810361018e5761012c600080828254610182919061026e565b925050819055506101a9565b6101f46000808282546101a1919061026e565b925050819055505b5b50565b600080fd5b6000819050919050565b6101c5816101b2565b81146101d057600080fd5b50565b6000813590506101e2816101bc565b92915050565b6000602082840312156101fe576101fd6101ad565b5b600061020c848285016101d3565b91505092915050565b61021e816101b2565b82525050565b60006020820190506102396000830184610215565b92915050565b7f4e487b7100000000000000000000000000000000000000000000000000000000600052601160045260246000fd5b6000610279826101b2565b9150610284836101b2565b925082820190508082111561029c5761029b61023f565b5b9291505056fea2646970667358221220ac9dfc35266b3c7fa107517e7f83c163e86aeded6d91ecf3730643bd6e2ce79464736f6c63430008110033",
  "linkReferences": {},
  "deployedLinkReferences": {}
}